{
  "_format": "hh-sol-artifact-1",
  "contractName": "InfinityAccount",
  "sourceName": "contracts/SecureWallet.sol",
  "abi": [
    {
      "inputs": [
        {
          "internalType": "contract IEntryPoint",
          "name": "anEntryPoint",
          "type": "address"
        },
        {
          "internalType": "address",
          "name": "anOwner",
          "type": "address"
        }
      ],
      "stateMutability": "nonpayable",
      "type": "constructor"
    },
    {
      "anonymous": false,
      "inputs": [
        {
          "indexed": true,
          "internalType": "address",
          "name": "oldEntryPoint",
          "type": "address"
        },
        {
          "indexed": true,
          "internalType": "address",
          "name": "newEntryPoint",
          "type": "address"
        }
      ],
      "name": "EntryPointChanged",
      "type": "event"
    },
    {
      "anonymous": false,
      "inputs": [
        {
          "indexed": true,
          "internalType": "address",
          "name": "oldOwner",
          "type": "address"
        },
        {
          "indexed": true,
          "internalType": "address",
          "name": "newOwner",
          "type": "address"
        }
      ],
      "name": "OwnerChanged",
      "type": "event"
    },
    {
      "anonymous": false,
      "inputs": [
        {
          "indexed": false,
          "internalType": "address",
          "name": "account",
          "type": "address"
        }
      ],
      "name": "RecoveryAccountChanged",
      "type": "event"
    },
    {
      "anonymous": false,
      "inputs": [
        {
          "indexed": false,
          "internalType": "uint256",
          "name": "switchTriggerBlockDiff",
          "type": "uint256"
        },
        {
          "indexed": false,
          "internalType": "address",
          "name": "switchAccount",
          "type": "address"
        }
      ],
      "name": "Switch",
      "type": "event"
    },
    {
      "anonymous": false,
      "inputs": [
        {
          "indexed": false,
          "internalType": "uint256",
          "name": "switchRequestBlockNumber",
          "type": "uint256"
        }
      ],
      "name": "SwitchRequest",
      "type": "event"
    },
    {
      "inputs": [],
      "name": "activateSwitch",
      "outputs": [],
      "stateMutability": "nonpayable",
      "type": "function"
    },
    {
      "inputs": [],
      "name": "addDeposit",
      "outputs": [],
      "stateMutability": "payable",
      "type": "function"
    },
    {
      "inputs": [
        {
          "internalType": "bytes4",
          "name": "",
          "type": "bytes4"
        }
      ],
      "name": "allowAllGrant",
      "outputs": [
        {
          "internalType": "bool",
          "name": "",
          "type": "bool"
        }
      ],
      "stateMutability": "view",
      "type": "function"
    },
    {
      "inputs": [],
      "name": "entryPoint",
      "outputs": [
        {
          "internalType": "contract IEntryPoint",
          "name": "",
          "type": "address"
        }
      ],
      "stateMutability": "view",
      "type": "function"
    },
    {
      "inputs": [
        {
          "internalType": "address",
          "name": "dest",
          "type": "address"
        },
        {
          "internalType": "uint256",
          "name": "value",
          "type": "uint256"
        },
        {
          "internalType": "bytes",
          "name": "func",
          "type": "bytes"
        }
      ],
      "name": "exec",
      "outputs": [],
      "stateMutability": "nonpayable",
      "type": "function"
    },
    {
      "inputs": [
        {
          "internalType": "address[]",
          "name": "dest",
          "type": "address[]"
        },
        {
          "internalType": "bytes[]",
          "name": "func",
          "type": "bytes[]"
        }
      ],
      "name": "execBatch",
      "outputs": [],
      "stateMutability": "nonpayable",
      "type": "function"
    },
    {
      "inputs": [
        {
          "internalType": "address",
          "name": "dest",
          "type": "address"
        },
        {
          "internalType": "uint256",
          "name": "value",
          "type": "uint256"
        },
        {
          "internalType": "bytes",
          "name": "func",
          "type": "bytes"
        }
      ],
      "name": "execFromEntryPoint",
      "outputs": [],
      "stateMutability": "nonpayable",
      "type": "function"
    },
    {
      "inputs": [],
      "name": "getDeposit",
      "outputs": [
        {
          "internalType": "uint256",
          "name": "",
          "type": "uint256"
        }
      ],
      "stateMutability": "view",
      "type": "function"
    },
    {
      "inputs": [
        {
          "internalType": "address",
          "name": "account",
          "type": "address"
        }
      ],
      "name": "initiateOwnerRecovery",
      "outputs": [],
      "stateMutability": "nonpayable",
      "type": "function"
    },
    {
      "inputs": [],
      "name": "nonce",
      "outputs": [
        {
          "internalType": "uint256",
          "name": "",
          "type": "uint256"
        }
      ],
      "stateMutability": "view",
      "type": "function"
    },
    {
      "inputs": [],
      "name": "owner",
      "outputs": [
        {
          "internalType": "address",
          "name": "",
          "type": "address"
        }
      ],
      "stateMutability": "view",
      "type": "function"
    },
    {
      "inputs": [],
      "name": "recoveryAccount",
      "outputs": [
        {
          "internalType": "address",
          "name": "",
          "type": "address"
        }
      ],
      "stateMutability": "view",
      "type": "function"
    },
    {
      "inputs": [
        {
          "internalType": "bytes4",
          "name": "",
          "type": "bytes4"
        },
        {
          "internalType": "address",
          "name": "",
          "type": "address"
        },
        {
          "internalType": "bytes4",
          "name": "",
          "type": "bytes4"
        }
      ],
      "name": "roleGrantMap",
      "outputs": [
        {
          "internalType": "bool",
          "name": "",
          "type": "bool"
        }
      ],
      "stateMutability": "view",
      "type": "function"
    },
    {
      "inputs": [
        {
          "internalType": "address",
          "name": "account",
          "type": "address"
        }
      ],
      "name": "setOwner",
      "outputs": [],
      "stateMutability": "nonpayable",
      "type": "function"
    },
    {
      "inputs": [
        {
          "internalType": "address",
          "name": "account",
          "type": "address"
        }
      ],
      "name": "setRecoveryAccount",
      "outputs": [],
      "stateMutability": "nonpayable",
      "type": "function"
    },
    {
      "inputs": [
        {
          "internalType": "address",
          "name": "account",
          "type": "address"
        },
        {
          "internalType": "uint256",
          "name": "diff",
          "type": "uint256"
        }
      ],
      "name": "setSwitch",
      "outputs": [],
      "stateMutability": "nonpayable",
      "type": "function"
    },
    {
      "inputs": [],
      "name": "setSwitchRequest",
      "outputs": [],
      "stateMutability": "nonpayable",
      "type": "function"
    },
    {
      "inputs": [],
      "name": "switchAccount",
      "outputs": [
        {
          "internalType": "address",
          "name": "",
          "type": "address"
        }
      ],
      "stateMutability": "view",
      "type": "function"
    },
    {
      "inputs": [],
      "name": "switchActivated",
      "outputs": [
        {
          "internalType": "bool",
          "name": "",
          "type": "bool"
        }
      ],
      "stateMutability": "view",
      "type": "function"
    },
    {
      "inputs": [],
      "name": "switchRequestBlockNumber",
      "outputs": [
        {
          "internalType": "uint256",
          "name": "",
          "type": "uint256"
        }
      ],
      "stateMutability": "view",
      "type": "function"
    },
    {
      "inputs": [],
      "name": "switchTriggerBlockDiff",
      "outputs": [
        {
          "internalType": "uint256",
          "name": "",
          "type": "uint256"
        }
      ],
      "stateMutability": "view",
      "type": "function"
    },
    {
      "inputs": [
        {
          "internalType": "address payable",
          "name": "dest",
          "type": "address"
        },
        {
          "internalType": "uint256",
          "name": "amount",
          "type": "uint256"
        }
      ],
      "name": "transfer",
      "outputs": [],
      "stateMutability": "nonpayable",
      "type": "function"
    },
    {
      "inputs": [
        {
          "internalType": "address",
          "name": "newEntryPoint",
          "type": "address"
        }
      ],
      "name": "updateEntryPoint",
      "outputs": [],
      "stateMutability": "nonpayable",
      "type": "function"
    },
    {
      "inputs": [
        {
          "components": [
            {
              "internalType": "address",
              "name": "sender",
              "type": "address"
            },
            {
              "internalType": "uint256",
              "name": "nonce",
              "type": "uint256"
            },
            {
              "internalType": "bytes",
              "name": "initCode",
              "type": "bytes"
            },
            {
              "internalType": "bytes",
              "name": "callData",
              "type": "bytes"
            },
            {
              "internalType": "uint256",
              "name": "callGasLimit",
              "type": "uint256"
            },
            {
              "internalType": "uint256",
              "name": "verificationGasLimit",
              "type": "uint256"
            },
            {
              "internalType": "uint256",
              "name": "preVerificationGas",
              "type": "uint256"
            },
            {
              "internalType": "uint256",
              "name": "maxFeePerGas",
              "type": "uint256"
            },
            {
              "internalType": "uint256",
              "name": "maxPriorityFeePerGas",
              "type": "uint256"
            },
            {
              "internalType": "bytes",
              "name": "paymasterAndData",
              "type": "bytes"
            },
            {
              "internalType": "bytes",
              "name": "signature",
              "type": "bytes"
            }
          ],
          "internalType": "struct UserOperation",
          "name": "userOp",
          "type": "tuple"
        },
        {
          "internalType": "bytes32",
          "name": "userOpHash",
          "type": "bytes32"
        },
        {
          "internalType": "address",
          "name": "aggregator",
          "type": "address"
        },
        {
          "internalType": "uint256",
          "name": "missingAccountFunds",
          "type": "uint256"
        }
      ],
      "name": "validateUserOp",
      "outputs": [
        {
          "internalType": "uint256",
          "name": "deadline",
          "type": "uint256"
        }
      ],
      "stateMutability": "nonpayable",
      "type": "function"
    },
    {
      "inputs": [
        {
          "internalType": "address payable",
          "name": "withdrawAddress",
          "type": "address"
        },
        {
          "internalType": "uint256",
          "name": "amount",
          "type": "uint256"
        }
      ],
      "name": "withdrawDepositTo",
      "outputs": [],
      "stateMutability": "nonpayable",
      "type": "function"
    },
    {
      "stateMutability": "payable",
      "type": "receive"
    }
  ],
  "bytecode": "0x608060405234801561001057600080fd5b50604051620016733803806200167383398101604081905261003191610091565b600780546001600160a01b039384166001600160a01b031990911617905560068054919092166c01000000000000000000000000026001600160601b039091161790556100cb565b6001600160a01b038116811461008e57600080fd5b50565b600080604083850312156100a457600080fd5b82516100af81610079565b60208401519092506100c081610079565b809150509250929050565b61159880620000db6000396000f3fe60806040526004361061016a5760003560e01c80638222520b116100d1578063affed0e01161008a578063c399ec8811610064578063c399ec8814610459578063c41461bf1461046e578063d0cb75fa14610483578063ff77f7a6146104a357600080fd5b8063affed0e014610408578063b0d691fe14610426578063b494fae31461044457600080fd5b80638222520b146103215780638da5cb5b1461034157806390d80f0e146103685780639c52d68d14610382578063a78d3e02146103c3578063a9059cbb146103e857600080fd5b80634a17b27f116101235780634a17b27f146102635780634a58db19146102795780634d44560d146102815780635aef7fdd146102a1578063729f36bb146102c157806380c5c7d01461030157600080fd5b80630565bb67146101765780630825d1fc1461019857806311b78100146101cb57806313af4035146101eb57806318a16b1c1461020b5780631b71bb6e1461024357600080fd5b3661017157005b600080fd5b34801561018257600080fd5b506101966101913660046111be565b6104b9565b005b3480156101a457600080fd5b506101b86101b3366004611247565b610518565b6040519081526020015b60405180910390f35b3480156101d757600080fd5b506101966101e63660046112ae565b61055e565b3480156101f757600080fd5b506101966102063660046112ae565b6105cf565b34801561021757600080fd5b5060035461022b906001600160a01b031681565b6040516001600160a01b0390911681526020016101c2565b34801561024f57600080fd5b5061019661025e3660046112ae565b6105d7565b34801561026f57600080fd5b506101b860015481565b6101966105eb565b34801561028d57600080fd5b5061019661029c3660046112d2565b61065c565b3480156102ad57600080fd5b506101966102bc3660046112ae565b6106d8565b3480156102cd57600080fd5b506102f16102dc36600461131b565b60046020526000908152604090205460ff1681565b60405190151581526020016101c2565b34801561030d57600080fd5b5061019661031c3660046111be565b6106e9565b34801561032d57600080fd5b5061019661033c3660046112d2565b6106f1565b34801561034d57600080fd5b5060065461022b90600160601b90046001600160a01b031681565b34801561037457600080fd5b506002546102f19060ff1681565b34801561038e57600080fd5b506102f161039d366004611336565b600560209081526000938452604080852082529284528284209052825290205460ff1681565b3480156103cf57600080fd5b5060025461022b9061010090046001600160a01b031681565b3480156103f457600080fd5b506101966104033660046112d2565b610707565b34801561041457600080fd5b506006546001600160601b03166101b8565b34801561043257600080fd5b506007546001600160a01b031661022b565b34801561045057600080fd5b5061019661074a565b34801561046557600080fd5b506101b861075c565b34801561047a57600080fd5b506101966107df565b34801561048f57600080fd5b5061019661049e3660046113c0565b610867565b3480156104af57600080fd5b506101b860005481565b6104c1610977565b60025460ff16156104d157600080fd5b610512848484848080601f0160208091040260200160405190810160405280939291908181526020018383808284376000920191909152506109cf92505050565b50505050565b6000610522610a3f565b61052d858585610a99565b905061053c604086018661142c565b1515905061054d5761054d85610bbb565b61055682610c4f565b949350505050565b610566610c9c565b6006546040516001600160a01b0380841692600160601b900416907fb532073b38c83145e3e5135377a08bf9aab55bc0fd7c1179cd4fb995d2a5159c90600090a3600680546001600160a01b03909216600160601b026001600160601b03909216919091179055565b610566610977565b6105df610cf7565b6105e881610cff565b50565b60006105ff6007546001600160a01b031690565b6001600160a01b03163460405160006040518083038185875af1925050503d8060008114610649576040519150601f19603f3d011682016040523d82523d6000602084013e61064e565b606091505b50509050806105e857600080fd5b610664610977565b6007546001600160a01b031660405163040b850f60e31b81526001600160a01b03848116600483015260248201849052919091169063205c287890604401600060405180830381600087803b1580156106bc57600080fd5b505af11580156106d0573d6000803e3d6000fd5b505050505050565b6106e0610977565b6105e881610d5b565b6104d1610a3f565b6106f9610977565b6107038282610daf565b5050565b61070f610977565b6040516001600160a01b0383169082156108fc029083906000818181858888f19350505050158015610745573d6000803e3d6000fd5b505050565b610752610e1d565b61075a610e7c565b565b60006107706007546001600160a01b031690565b6040516370a0823160e01b81523060048201526001600160a01b0391909116906370a0823190602401602060405180830381865afa1580156107b6573d6000803e3d6000fd5b505050506040513d601f19601f820116820180604052508101906107da9190611473565b905090565b6107e7610e1d565b6107ef610eb7565b6002546006546040516101009092046001600160a01b0390811692600160601b90920416907fb532073b38c83145e3e5135377a08bf9aab55bc0fd7c1179cd4fb995d2a5159c90600090a3600254600680546001600160601b03166101009092046001600160a01b0316600160601b02919091179055565b61086f610977565b60025460ff161561087f57600080fd5b8281146108c95760405162461bcd60e51b815260206004820152601360248201527277726f6e67206172726179206c656e6774687360681b60448201526064015b60405180910390fd5b60005b838110156109705761095e8585838181106108e9576108e961148c565b90506020020160208101906108fe91906112ae565b60008585858181106109125761091261148c565b9050602002810190610924919061142c565b8080601f0160208091040260200160405190810160405280939291908181526020018383808284376000920191909152506109cf92505050565b80610968816114b8565b9150506108cc565b5050505050565b600654600160601b90046001600160a01b031633148061099657503330145b61075a5760405162461bcd60e51b815260206004820152600a60248201526937b7363c9037bbb732b960b11b60448201526064016108c0565b600080846001600160a01b031684846040516109eb91906114d3565b60006040518083038185875af1925050503d8060008114610a28576040519150601f19603f3d011682016040523d82523d6000602084013e610a2d565b606091505b50915091508161097057805160208201fd5b6007546001600160a01b0316331461075a5760405162461bcd60e51b815260206004820152601c60248201527f6163636f756e743a206e6f742066726f6d20456e747279506f696e740000000060448201526064016108c0565b600080610af3846040517f19457468657265756d205369676e6564204d6573736167653a0a3332000000006020820152603c8101829052600090605c01604051602081830303815290604052805190602001209050919050565b9050610b43610b0661014087018761142c565b8080601f0160208091040260200160405190810160405280939291908181526020018383808284376000920191909152508593925050610f2d9050565b600654600160601b90046001600160a01b0390811691161480610b64575032155b610bb05760405162461bcd60e51b815260206004820152601860248201527f6163636f756e743a2077726f6e67207369676e6174757265000000000000000060448201526064016108c0565b506000949350505050565b600680546020830135916001600160601b03909116906000610bdc8361150e565b91906101000a8154816001600160601b0302191690836001600160601b031602179055506001600160601b0316146105e85760405162461bcd60e51b81526020600482015260166024820152756163636f756e743a20696e76616c6964206e6f6e636560501b60448201526064016108c0565b80156105e857604051600090339060001990849084818181858888f193505050503d8060008114610970576040519150601f19603f3d011682016040523d82523d6000602084013e610970565b6003546001600160a01b031633148015610cb557503330145b61075a5760405162461bcd60e51b81526020600482015260136024820152721bdb9b1e481cddda5d18da081858d8dbdd5b9d606a1b60448201526064016108c0565b61075a610977565b6007546040516001600160a01b038084169216907f450909c1478d09248269d4ad4fa8cba61ca3f50faed58c7aedefa51c7f62b83a90600090a3600780546001600160a01b0319166001600160a01b0392909216919091179055565b600380546001600160a01b0319166001600160a01b0383169081179091556040519081527f1733adfdd5cb049dd608bb30b5482b4ee2eff39b793a331e8c9c4eac0f36cf8c9060200160405180910390a150565b60028054610100600160a81b0319166101006001600160a01b03858116820292909217928390556001849055604080518581529190930490911660208201527f1adc9dbbd30c79dd8a69c6b484dc2f19670f7b3c376b3e1f89bd59ac5d47719f910160405180910390a15050565b60025461010090046001600160a01b031633148015610cb5575033301461075a5760405162461bcd60e51b81526020600482015260136024820152721bdb9b1e481cddda5d18da081858d8dbdd5b9d606a1b60448201526064016108c0565b4360008190556040519081527f0dd43647bb8731ee76bfcac6a37355b5e97da27da3eb99d2b09be56ecd30d7b39060200160405180910390a1565b60025460ff1615610ec757600080fd5b600154600054610ed79043611535565b1015610f1e5760405162461bcd60e51b81526020600482015260166024820152750c6c2dcdcdee840c2c6e8d2ecc2e8ca40e6eed2e8c6d60531b60448201526064016108c0565b6002805460ff19166001179055565b6000806000610f3c8585610f51565b91509150610f4981610f97565b509392505050565b600080825160411415610f885760208301516040840151606085015160001a610f7c878285856110e5565b94509450505050610f90565b506000905060025b9250929050565b6000816004811115610fab57610fab61154c565b1415610fb45750565b6001816004811115610fc857610fc861154c565b14156110165760405162461bcd60e51b815260206004820152601860248201527f45434453413a20696e76616c6964207369676e6174757265000000000000000060448201526064016108c0565b600281600481111561102a5761102a61154c565b14156110785760405162461bcd60e51b815260206004820152601f60248201527f45434453413a20696e76616c6964207369676e6174757265206c656e6774680060448201526064016108c0565b600381600481111561108c5761108c61154c565b14156105e85760405162461bcd60e51b815260206004820152602260248201527f45434453413a20696e76616c6964207369676e6174757265202773272076616c604482015261756560f01b60648201526084016108c0565b6000807f7fffffffffffffffffffffffffffffff5d576e7357a4501ddfe92f46681b20a083111561111c57506000905060036111a0565b6040805160008082526020820180845289905260ff881692820192909252606081018690526080810185905260019060a0016020604051602081039080840390855afa158015611170573d6000803e3d6000fd5b5050604051601f1901519150506001600160a01b038116611199576000600192509250506111a0565b9150600090505b94509492505050565b6001600160a01b03811681146105e857600080fd5b600080600080606085870312156111d457600080fd5b84356111df816111a9565b935060208501359250604085013567ffffffffffffffff8082111561120357600080fd5b818701915087601f83011261121757600080fd5b81358181111561122657600080fd5b88602082850101111561123857600080fd5b95989497505060200194505050565b6000806000806080858703121561125d57600080fd5b843567ffffffffffffffff81111561127457600080fd5b8501610160818803121561128757600080fd5b935060208501359250604085013561129e816111a9565b9396929550929360600135925050565b6000602082840312156112c057600080fd5b81356112cb816111a9565b9392505050565b600080604083850312156112e557600080fd5b82356112f0816111a9565b946020939093013593505050565b80356001600160e01b03198116811461131657600080fd5b919050565b60006020828403121561132d57600080fd5b6112cb826112fe565b60008060006060848603121561134b57600080fd5b611354846112fe565b92506020840135611364816111a9565b9150611372604085016112fe565b90509250925092565b60008083601f84011261138d57600080fd5b50813567ffffffffffffffff8111156113a557600080fd5b6020830191508360208260051b8501011115610f9057600080fd5b600080600080604085870312156113d657600080fd5b843567ffffffffffffffff808211156113ee57600080fd5b6113fa8883890161137b565b9096509450602087013591508082111561141357600080fd5b506114208782880161137b565b95989497509550505050565b6000808335601e1984360301811261144357600080fd5b83018035915067ffffffffffffffff82111561145e57600080fd5b602001915036819003821315610f9057600080fd5b60006020828403121561148557600080fd5b5051919050565b634e487b7160e01b600052603260045260246000fd5b634e487b7160e01b600052601160045260246000fd5b60006000198214156114cc576114cc6114a2565b5060010190565b6000825160005b818110156114f457602081860181015185830152016114da565b81811115611503576000828501525b509190910192915050565b60006001600160601b038083168181141561152b5761152b6114a2565b6001019392505050565b600082821015611547576115476114a2565b500390565b634e487b7160e01b600052602160045260246000fdfea2646970667358221220a3bbc9ff148ba97b6851ea155ee8c95beb4a0edaa4d880803b1413063557825a64736f6c634300080c0033",
  "linkReferences": {},
  "deployedLinkReferences": {}
}