{
  "_format": "hh-sol-artifact-1",
  "contractName": "InfinityWallet",
  "sourceName": "contracts/InfinityWallet.sol",
  "abi": [
    {
      "inputs": [],
      "stateMutability": "nonpayable",
      "type": "constructor"
    },
    {
      "anonymous": false,
      "inputs": [
        {
          "indexed": true,
          "internalType": "address",
          "name": "oldEntryPoint",
          "type": "address"
        },
        {
          "indexed": true,
          "internalType": "address",
          "name": "newEntryPoint",
          "type": "address"
        }
      ],
      "name": "EntryPointChanged",
      "type": "event"
    },
    {
      "anonymous": false,
      "inputs": [
        {
          "indexed": false,
          "internalType": "uint8",
          "name": "version",
          "type": "uint8"
        }
      ],
      "name": "Initialized",
      "type": "event"
    },
    {
      "anonymous": false,
      "inputs": [
        {
          "indexed": true,
          "internalType": "address",
          "name": "oldOwner",
          "type": "address"
        },
        {
          "indexed": true,
          "internalType": "address",
          "name": "newOwner",
          "type": "address"
        }
      ],
      "name": "OwnerChanged",
      "type": "event"
    },
    {
      "anonymous": false,
      "inputs": [
        {
          "indexed": false,
          "internalType": "address",
          "name": "account",
          "type": "address"
        }
      ],
      "name": "RecoveryAccountChanged",
      "type": "event"
    },
    {
      "anonymous": false,
      "inputs": [
        {
          "indexed": false,
          "internalType": "uint256",
          "name": "switchTriggerBlockDiff",
          "type": "uint256"
        },
        {
          "indexed": false,
          "internalType": "address",
          "name": "switchAccount",
          "type": "address"
        }
      ],
      "name": "Switch",
      "type": "event"
    },
    {
      "anonymous": false,
      "inputs": [
        {
          "indexed": false,
          "internalType": "uint256",
          "name": "switchRequestBlockNumber",
          "type": "uint256"
        }
      ],
      "name": "SwitchRequest",
      "type": "event"
    },
    {
      "inputs": [],
      "name": "DeadManSwitch__init",
      "outputs": [],
      "stateMutability": "nonpayable",
      "type": "function"
    },
    {
      "inputs": [
        {
          "internalType": "address",
          "name": "",
          "type": "address"
        }
      ],
      "name": "SessionMap",
      "outputs": [
        {
          "internalType": "uint256",
          "name": "blockNumber",
          "type": "uint256"
        },
        {
          "internalType": "address",
          "name": "target",
          "type": "address"
        },
        {
          "internalType": "bool",
          "name": "active",
          "type": "bool"
        }
      ],
      "stateMutability": "view",
      "type": "function"
    },
    {
      "inputs": [],
      "name": "activateSwitch",
      "outputs": [],
      "stateMutability": "nonpayable",
      "type": "function"
    },
    {
      "inputs": [],
      "name": "addDeposit",
      "outputs": [],
      "stateMutability": "payable",
      "type": "function"
    },
    {
      "inputs": [
        {
          "internalType": "address",
          "name": "sessionAddress",
          "type": "address"
        },
        {
          "internalType": "address",
          "name": "target",
          "type": "address"
        },
        {
          "internalType": "uint256",
          "name": "blockNumber",
          "type": "uint256"
        }
      ],
      "name": "createSession",
      "outputs": [],
      "stateMutability": "nonpayable",
      "type": "function"
    },
    {
      "inputs": [
        {
          "internalType": "address",
          "name": "sessionAddress",
          "type": "address"
        }
      ],
      "name": "deactivateSession",
      "outputs": [],
      "stateMutability": "nonpayable",
      "type": "function"
    },
    {
      "inputs": [],
      "name": "entryPoint",
      "outputs": [
        {
          "internalType": "contract IEntryPoint",
          "name": "",
          "type": "address"
        }
      ],
      "stateMutability": "view",
      "type": "function"
    },
    {
      "inputs": [
        {
          "internalType": "address",
          "name": "dest",
          "type": "address"
        },
        {
          "internalType": "uint256",
          "name": "value",
          "type": "uint256"
        },
        {
          "internalType": "bytes",
          "name": "func",
          "type": "bytes"
        }
      ],
      "name": "exec",
      "outputs": [],
      "stateMutability": "nonpayable",
      "type": "function"
    },
    {
      "inputs": [
        {
          "internalType": "address[]",
          "name": "dest",
          "type": "address[]"
        },
        {
          "internalType": "bytes[]",
          "name": "func",
          "type": "bytes[]"
        }
      ],
      "name": "execBatch",
      "outputs": [],
      "stateMutability": "nonpayable",
      "type": "function"
    },
    {
      "inputs": [
        {
          "internalType": "address",
          "name": "dest",
          "type": "address"
        },
        {
          "internalType": "uint256",
          "name": "value",
          "type": "uint256"
        },
        {
          "internalType": "bytes",
          "name": "func",
          "type": "bytes"
        }
      ],
      "name": "execFromEntryPoint",
      "outputs": [],
      "stateMutability": "nonpayable",
      "type": "function"
    },
    {
      "inputs": [],
      "name": "getDeposit",
      "outputs": [
        {
          "internalType": "uint256",
          "name": "",
          "type": "uint256"
        }
      ],
      "stateMutability": "view",
      "type": "function"
    },
    {
      "inputs": [
        {
          "internalType": "contract IEntryPoint",
          "name": "anEntryPoint",
          "type": "address"
        },
        {
          "internalType": "address",
          "name": "anOwner",
          "type": "address"
        }
      ],
      "name": "initialize",
      "outputs": [],
      "stateMutability": "nonpayable",
      "type": "function"
    },
    {
      "inputs": [
        {
          "internalType": "address",
          "name": "account",
          "type": "address"
        }
      ],
      "name": "initiateOwnerRecovery",
      "outputs": [],
      "stateMutability": "nonpayable",
      "type": "function"
    },
    {
      "inputs": [],
      "name": "nonce",
      "outputs": [
        {
          "internalType": "uint256",
          "name": "",
          "type": "uint256"
        }
      ],
      "stateMutability": "view",
      "type": "function"
    },
    {
      "inputs": [],
      "name": "owner",
      "outputs": [
        {
          "internalType": "address",
          "name": "",
          "type": "address"
        }
      ],
      "stateMutability": "view",
      "type": "function"
    },
    {
      "inputs": [],
      "name": "recoveryAccount",
      "outputs": [
        {
          "internalType": "address",
          "name": "",
          "type": "address"
        }
      ],
      "stateMutability": "view",
      "type": "function"
    },
    {
      "inputs": [],
      "name": "rejectSwitchRequest",
      "outputs": [],
      "stateMutability": "nonpayable",
      "type": "function"
    },
    {
      "inputs": [
        {
          "internalType": "address",
          "name": "account",
          "type": "address"
        }
      ],
      "name": "setOwner",
      "outputs": [],
      "stateMutability": "nonpayable",
      "type": "function"
    },
    {
      "inputs": [
        {
          "internalType": "address",
          "name": "account",
          "type": "address"
        }
      ],
      "name": "setRecoveryAccount",
      "outputs": [],
      "stateMutability": "nonpayable",
      "type": "function"
    },
    {
      "inputs": [
        {
          "internalType": "address",
          "name": "account",
          "type": "address"
        },
        {
          "internalType": "uint256",
          "name": "diff",
          "type": "uint256"
        }
      ],
      "name": "setSwitch",
      "outputs": [],
      "stateMutability": "nonpayable",
      "type": "function"
    },
    {
      "inputs": [],
      "name": "setSwitchRequest",
      "outputs": [],
      "stateMutability": "nonpayable",
      "type": "function"
    },
    {
      "inputs": [],
      "name": "switchAccount",
      "outputs": [
        {
          "internalType": "address",
          "name": "",
          "type": "address"
        }
      ],
      "stateMutability": "view",
      "type": "function"
    },
    {
      "inputs": [],
      "name": "switchActivated",
      "outputs": [
        {
          "internalType": "bool",
          "name": "",
          "type": "bool"
        }
      ],
      "stateMutability": "view",
      "type": "function"
    },
    {
      "inputs": [],
      "name": "switchRequestBlockNumber",
      "outputs": [
        {
          "internalType": "uint256",
          "name": "",
          "type": "uint256"
        }
      ],
      "stateMutability": "view",
      "type": "function"
    },
    {
      "inputs": [],
      "name": "switchTriggerBlockDiff",
      "outputs": [
        {
          "internalType": "uint256",
          "name": "",
          "type": "uint256"
        }
      ],
      "stateMutability": "view",
      "type": "function"
    },
    {
      "inputs": [
        {
          "internalType": "address payable",
          "name": "dest",
          "type": "address"
        },
        {
          "internalType": "uint256",
          "name": "amount",
          "type": "uint256"
        }
      ],
      "name": "transfer",
      "outputs": [],
      "stateMutability": "nonpayable",
      "type": "function"
    },
    {
      "inputs": [
        {
          "internalType": "address",
          "name": "newEntryPoint",
          "type": "address"
        }
      ],
      "name": "updateEntryPoint",
      "outputs": [],
      "stateMutability": "nonpayable",
      "type": "function"
    },
    {
      "inputs": [
        {
          "components": [
            {
              "internalType": "address",
              "name": "sender",
              "type": "address"
            },
            {
              "internalType": "uint256",
              "name": "nonce",
              "type": "uint256"
            },
            {
              "internalType": "bytes",
              "name": "initCode",
              "type": "bytes"
            },
            {
              "internalType": "bytes",
              "name": "callData",
              "type": "bytes"
            },
            {
              "internalType": "uint256",
              "name": "callGasLimit",
              "type": "uint256"
            },
            {
              "internalType": "uint256",
              "name": "verificationGasLimit",
              "type": "uint256"
            },
            {
              "internalType": "uint256",
              "name": "preVerificationGas",
              "type": "uint256"
            },
            {
              "internalType": "uint256",
              "name": "maxFeePerGas",
              "type": "uint256"
            },
            {
              "internalType": "uint256",
              "name": "maxPriorityFeePerGas",
              "type": "uint256"
            },
            {
              "internalType": "bytes",
              "name": "paymasterAndData",
              "type": "bytes"
            },
            {
              "internalType": "bytes",
              "name": "signature",
              "type": "bytes"
            }
          ],
          "internalType": "struct UserOperation",
          "name": "userOp",
          "type": "tuple"
        },
        {
          "internalType": "bytes32",
          "name": "userOpHash",
          "type": "bytes32"
        },
        {
          "internalType": "address",
          "name": "aggregator",
          "type": "address"
        },
        {
          "internalType": "uint256",
          "name": "missingAccountFunds",
          "type": "uint256"
        }
      ],
      "name": "validateUserOp",
      "outputs": [
        {
          "internalType": "uint256",
          "name": "deadline",
          "type": "uint256"
        }
      ],
      "stateMutability": "nonpayable",
      "type": "function"
    },
    {
      "inputs": [
        {
          "internalType": "address payable",
          "name": "withdrawAddress",
          "type": "address"
        },
        {
          "internalType": "uint256",
          "name": "amount",
          "type": "uint256"
        }
      ],
      "name": "withdrawDepositTo",
      "outputs": [],
      "stateMutability": "nonpayable",
      "type": "function"
    },
    {
      "stateMutability": "payable",
      "type": "receive"
    }
  ],
  "bytecode": "0x608060405234801561001057600080fd5b5061001961001e565b6100de565b600054610100900460ff161561008a5760405162461bcd60e51b815260206004820152602760248201527f496e697469616c697a61626c653a20636f6e747261637420697320696e697469604482015266616c697a696e6760c81b606482015260840160405180910390fd5b60005460ff90811610156100dc576000805460ff191660ff9081179091556040519081527f7f26b83ff96e1f2b6a682f133852f6798a09c465da95921460cefb38474024989060200160405180910390a15b565b611a5e806100ed6000396000f3fe6080604052600436106101c65760003560e01c8063875da6a5116100f7578063b494fae311610095578063cb85de3211610064578063cb85de32146104d8578063d0cb75fa14610546578063e82b7b4514610566578063ff77f7a61461058657600080fd5b8063b494fae314610484578063c399ec8814610499578063c41461bf146104ae578063c5f202ac146104c357600080fd5b8063a78d3e02116100d1578063a78d3e0214610403578063a9059cbb14610428578063affed0e014610448578063b0d691fe1461046657600080fd5b8063875da6a51461039d5780638da5cb5b146103b257806390d80f0e146103d957600080fd5b8063485cc955116101645780634d44560d1161013e5780634d44560d1461031d5780635aef7fdd1461033d57806380c5c7d01461035d5780638222520b1461037d57600080fd5b8063485cc955146102df5780634a17b27f146102ff5780634a58db191461031557600080fd5b806313af4035116101a057806313af40351461024757806318a16b1c146102675780631b71bb6e1461029f57806335179801146102bf57600080fd5b80630565bb67146101d25780630825d1fc146101f457806311b781001461022757600080fd5b366101cd57005b600080fd5b3480156101de57600080fd5b506101f26101ed36600461160b565b61059c565b005b34801561020057600080fd5b5061021461020f366004611694565b6105fb565b6040519081526020015b60405180910390f35b34801561023357600080fd5b506101f26102423660046116fb565b610641565b34801561025357600080fd5b506101f26102623660046116fb565b6106b2565b34801561027357600080fd5b50600454610287906001600160a01b031681565b6040516001600160a01b03909116815260200161021e565b3480156102ab57600080fd5b506101f26102ba3660046116fb565b6106ba565b3480156102cb57600080fd5b506101f26102da3660046116fb565b6106ce565b3480156102eb57600080fd5b506101f26102fa366004611718565b6106f9565b34801561030b57600080fd5b5061021460025481565b6101f261080d565b34801561032957600080fd5b506101f2610338366004611751565b61087e565b34801561034957600080fd5b506101f26103583660046116fb565b6108fa565b34801561036957600080fd5b506101f261037836600461160b565b61090b565b34801561038957600080fd5b506101f2610398366004611751565b610913565b3480156103a957600080fd5b506101f2610929565b3480156103be57600080fd5b5060065461028790600160601b90046001600160a01b031681565b3480156103e557600080fd5b506003546103f39060ff1681565b604051901515815260200161021e565b34801561040f57600080fd5b506003546102879061010090046001600160a01b031681565b34801561043457600080fd5b506101f2610443366004611751565b6109f1565b34801561045457600080fd5b506006546001600160601b0316610214565b34801561047257600080fd5b506007546001600160a01b0316610287565b34801561049057600080fd5b506101f2610a2f565b3480156104a557600080fd5b50610214610a41565b3480156104ba57600080fd5b506101f2610ac4565b3480156104cf57600080fd5b506101f2610b4c565b3480156104e457600080fd5b506105216104f33660046116fb565b600560205260009081526040902080546001909101546001600160a01b03811690600160a01b900460ff1683565b604080519384526001600160a01b03909216602084015215159082015260600161021e565b34801561055257600080fd5b506101f26105613660046117c2565b610b5f565b34801561057257600080fd5b506101f261058136600461182e565b610c6a565b34801561059257600080fd5b5061021460015481565b6105a4610cd7565b60035460ff16156105b457600080fd5b6105f5848484848080601f016020809104026020016040519081016040528093929190818152602001838380828437600092019190915250610d2f92505050565b50505050565b6000610605610d9f565b610610858585610df9565b905061061f604086018661186f565b151590506106305761063085610f90565b61063982611024565b949350505050565b610649611071565b6006546040516001600160a01b0380841692600160601b900416907fb532073b38c83145e3e5135377a08bf9aab55bc0fd7c1179cd4fb995d2a5159c90600090a3600680546001600160a01b03909216600160601b026001600160601b03909216919091179055565b610649610cd7565b6106c26110cc565b6106cb816110d4565b50565b6106cb816001600160a01b03166000908152600560205260409020600101805460ff60a01b19169055565b600054610100900460ff16158080156107195750600054600160ff909116105b806107335750303b158015610733575060005460ff166001145b6107585760405162461bcd60e51b815260040161074f906118b6565b60405180910390fd5b6000805460ff19166001179055801561077b576000805461ff0019166101001790555b600780546001600160a01b0319166001600160a01b0385811691909117909155600680546001600160601b0316600160601b928516929092029190911790556107c2610929565b8015610808576000805461ff0019169055604051600181527f7f26b83ff96e1f2b6a682f133852f6798a09c465da95921460cefb38474024989060200160405180910390a15b505050565b60006108216007546001600160a01b031690565b6001600160a01b03163460405160006040518083038185875af1925050503d806000811461086b576040519150601f19603f3d011682016040523d82523d6000602084013e610870565b606091505b50509050806106cb57600080fd5b610886610cd7565b6007546001600160a01b031660405163040b850f60e31b81526001600160a01b03848116600483015260248201849052919091169063205c287890604401600060405180830381600087803b1580156108de57600080fd5b505af11580156108f2573d6000803e3d6000fd5b505050505050565b610902610cd7565b6106cb81611130565b6105b4610d9f565b61091b610cd7565b610925828261117e565b5050565b600054610100900460ff16158080156109495750600054600160ff909116105b806109635750303b158015610963575060005460ff166001145b61097f5760405162461bcd60e51b815260040161074f906118b6565b6000805460ff1916600117905580156109a2576000805461ff0019166101001790555b60001960015580156106cb576000805461ff0019169055604051600181527f7f26b83ff96e1f2b6a682f133852f6798a09c465da95921460cefb3847402498906020015b60405180910390a150565b6109f9610cd7565b6040516001600160a01b0383169082156108fc029083906000818181858888f19350505050158015610808573d6000803e3d6000fd5b610a376111ec565b610a3f61124b565b565b6000610a556007546001600160a01b031690565b6040516370a0823160e01b81523060048201526001600160a01b0391909116906370a0823190602401602060405180830381865afa158015610a9b573d6000803e3d6000fd5b505050506040513d601f19601f82011682018060405250810190610abf9190611904565b905090565b610acc6111ec565b610ad4611286565b6003546006546040516101009092046001600160a01b0390811692600160601b90920416907fb532073b38c83145e3e5135377a08bf9aab55bc0fd7c1179cd4fb995d2a5159c90600090a3600354600680546001600160601b03166101009092046001600160a01b0316600160601b02919091179055565b610b54610cd7565b610a3f600019600155565b610b67610cd7565b60035460ff1615610b7757600080fd5b828114610bbc5760405162461bcd60e51b815260206004820152601360248201527277726f6e67206172726179206c656e6774687360681b604482015260640161074f565b60005b83811015610c6357610c51858583818110610bdc57610bdc61191d565b9050602002016020810190610bf191906116fb565b6000858585818110610c0557610c0561191d565b9050602002810190610c17919061186f565b8080601f016020809104026020016040519081016040528093929190818152602001838380828437600092019190915250610d2f92505050565b80610c5b81611949565b915050610bbf565b5050505050565b610808818385604080516060810182529384526001600160a01b03928316602080860191825260018684018181529486166000908152600590925292902094518555519301805491511515600160a01b026001600160a81b03199092169390921692909217919091179055565b600654600160601b90046001600160a01b0316331480610cf657503330145b610a3f5760405162461bcd60e51b815260206004820152600a60248201526937b7363c9037bbb732b960b11b604482015260640161074f565b600080846001600160a01b03168484604051610d4b9190611964565b60006040518083038185875af1925050503d8060008114610d88576040519150601f19603f3d011682016040523d82523d6000602084013e610d8d565b606091505b509150915081610c6357805160208201fd5b6007546001600160a01b03163314610a3f5760405162461bcd60e51b815260206004820152601c60248201527f6163636f756e743a206e6f742066726f6d20456e747279506f696e7400000000604482015260640161074f565b600080610e53846040517f19457468657265756d205369676e6564204d6573736167653a0a3332000000006020820152603c8101829052600090605c01604051602081830303815290604052805190602001209050919050565b9050610ea3610e6661014087018761186f565b8080601f01602080910402602001604051908101604052809392919081815260200183838082843760009201919091525085939250506112fc9050565b600654600160601b90046001600160a01b0390811691161480610ec4575032155b80610f395750610f39610f1b610ede61014088018861186f565b8080601f01602080910402602001604051908101604052809392919081815260200183838082843760009201919091525086939250506112fc9050565b610f28606088018861186f565b610f319161199f565b60601c611320565b610f855760405162461bcd60e51b815260206004820152601860248201527f6163636f756e743a2077726f6e67207369676e61747572650000000000000000604482015260640161074f565b506000949350505050565b600680546020830135916001600160601b03909116906000610fb1836119d4565b91906101000a8154816001600160601b0302191690836001600160601b031602179055506001600160601b0316146106cb5760405162461bcd60e51b81526020600482015260166024820152756163636f756e743a20696e76616c6964206e6f6e636560501b604482015260640161074f565b80156106cb57604051600090339060001990849084818181858888f193505050503d8060008114610c63576040519150601f19603f3d011682016040523d82523d6000602084013e610c63565b6004546001600160a01b03163314801561108a57503330145b610a3f5760405162461bcd60e51b81526020600482015260136024820152721bdb9b1e481cddda5d18da081858d8dbdd5b9d606a1b604482015260640161074f565b610a3f610cd7565b6007546040516001600160a01b038084169216907f450909c1478d09248269d4ad4fa8cba61ca3f50faed58c7aedefa51c7f62b83a90600090a3600780546001600160a01b0319166001600160a01b0392909216919091179055565b600480546001600160a01b0319166001600160a01b0383169081179091556040519081527f1733adfdd5cb049dd608bb30b5482b4ee2eff39b793a331e8c9c4eac0f36cf8c906020016109e6565b60038054610100600160a81b0319166101006001600160a01b03858116820292909217928390556002849055604080518581529190930490911660208201527f1adc9dbbd30c79dd8a69c6b484dc2f19670f7b3c376b3e1f89bd59ac5d47719f910160405180910390a15050565b60035461010090046001600160a01b03163314801561108a5750333014610a3f5760405162461bcd60e51b81526020600482015260136024820152721bdb9b1e481cddda5d18da081858d8dbdd5b9d606a1b604482015260640161074f565b4360018190556040519081527f0dd43647bb8731ee76bfcac6a37355b5e97da27da3eb99d2b09be56ecd30d7b39060200160405180910390a1565b60035460ff161561129657600080fd5b6002546001546112a690436119fb565b10156112ed5760405162461bcd60e51b81526020600482015260166024820152750c6c2dcdcdee840c2c6e8d2ecc2e8ca40e6eed2e8c6d60531b604482015260640161074f565b6003805460ff19166001179055565b600080600061130b858561139e565b91509150611318816113e4565b509392505050565b6001600160a01b038281166000908152600560205260408120600101549091838116911614801561137357506001600160a01b038316600090815260056020526040902060010154600160a01b900460ff165b801561139757506001600160a01b0383166000908152600560205260409020544311155b9392505050565b6000808251604114156113d55760208301516040840151606085015160001a6113c987828585611532565b945094505050506113dd565b506000905060025b9250929050565b60008160048111156113f8576113f8611a12565b14156114015750565b600181600481111561141557611415611a12565b14156114635760405162461bcd60e51b815260206004820152601860248201527f45434453413a20696e76616c6964207369676e61747572650000000000000000604482015260640161074f565b600281600481111561147757611477611a12565b14156114c55760405162461bcd60e51b815260206004820152601f60248201527f45434453413a20696e76616c6964207369676e6174757265206c656e67746800604482015260640161074f565b60038160048111156114d9576114d9611a12565b14156106cb5760405162461bcd60e51b815260206004820152602260248201527f45434453413a20696e76616c6964207369676e6174757265202773272076616c604482015261756560f01b606482015260840161074f565b6000807f7fffffffffffffffffffffffffffffff5d576e7357a4501ddfe92f46681b20a083111561156957506000905060036115ed565b6040805160008082526020820180845289905260ff881692820192909252606081018690526080810185905260019060a0016020604051602081039080840390855afa1580156115bd573d6000803e3d6000fd5b5050604051601f1901519150506001600160a01b0381166115e6576000600192509250506115ed565b9150600090505b94509492505050565b6001600160a01b03811681146106cb57600080fd5b6000806000806060858703121561162157600080fd5b843561162c816115f6565b935060208501359250604085013567ffffffffffffffff8082111561165057600080fd5b818701915087601f83011261166457600080fd5b81358181111561167357600080fd5b88602082850101111561168557600080fd5b95989497505060200194505050565b600080600080608085870312156116aa57600080fd5b843567ffffffffffffffff8111156116c157600080fd5b850161016081880312156116d457600080fd5b93506020850135925060408501356116eb816115f6565b9396929550929360600135925050565b60006020828403121561170d57600080fd5b8135611397816115f6565b6000806040838503121561172b57600080fd5b8235611736816115f6565b91506020830135611746816115f6565b809150509250929050565b6000806040838503121561176457600080fd5b823561176f816115f6565b946020939093013593505050565b60008083601f84011261178f57600080fd5b50813567ffffffffffffffff8111156117a757600080fd5b6020830191508360208260051b85010111156113dd57600080fd5b600080600080604085870312156117d857600080fd5b843567ffffffffffffffff808211156117f057600080fd5b6117fc8883890161177d565b9096509450602087013591508082111561181557600080fd5b506118228782880161177d565b95989497509550505050565b60008060006060848603121561184357600080fd5b833561184e816115f6565b9250602084013561185e816115f6565b929592945050506040919091013590565b6000808335601e1984360301811261188657600080fd5b83018035915067ffffffffffffffff8211156118a157600080fd5b6020019150368190038213156113dd57600080fd5b6020808252602e908201527f496e697469616c697a61626c653a20636f6e747261637420697320616c72656160408201526d191e481a5b9a5d1a585b1a5e995960921b606082015260800190565b60006020828403121561191657600080fd5b5051919050565b634e487b7160e01b600052603260045260246000fd5b634e487b7160e01b600052601160045260246000fd5b600060001982141561195d5761195d611933565b5060010190565b6000825160005b81811015611985576020818601810151858301520161196b565b81811115611994576000828501525b509190910192915050565b6bffffffffffffffffffffffff1981358181169160148510156119cc5780818660140360031b1b83161692505b505092915050565b60006001600160601b03808316818114156119f1576119f1611933565b6001019392505050565b600082821015611a0d57611a0d611933565b500390565b634e487b7160e01b600052602160045260246000fdfea26469706673582212207732dc19fa9bc57ef7718033e1f953f25ac82de5e2bcd3c53a4d84237a14d2f964736f6c634300080c0033",
  "linkReferences": {},
  "deployedLinkReferences": {}
}